:100000000C9434000C9446000C9446000C9446006A
:100010000C9446000C9446000C9446000C94460048
:100020000C9446000C9446000C9446000C94460038
:100030000C9446000C9446000C9446000C94460028
:100040000C9446000C9446000C9489000C944600D5
:100050000C94D4000C9446000C9446000C9446007A
:100060000C9446000C94460011241FBECFEFD8E03C
:10007000DEBFCDBF21E0A0E0B1E001C01D92AF35F1
:10008000B207E1F70E9470010C94B5010C940000D6
:10009000CF93DF9300D0CDB7DEB71A8219820EC09E
:1000A0000E944701282F89819A81895F9E4FFC0118
:1000B000208389819A8101969A83898389819A8193
:1000C000069774F30E943A010F900F90DF91CF9141
:1000D0000895CF93DF93CDB7DEB70E94480080919B
:1000E000070191E08D3209F090E02091070181E055
:1000F0002B3209F080E0892B882341F088E091E0E1
:100100000E948F019093010180930001DF91CF91B4
:1001100008951F920F9200905F000F9211242F9369
:100120003F938F939F93EF93FF93CF93DF93CDB73D
:10013000DEB780910601803248F580910401882F56
:1001400090E026EC30E0F9012081825F9E4FFC01B7
:10015000208380910401882F90E0825F9E4FFC01F4
:1001600080818A3019F481E080935E0180910401DE
:100170008F5F8093040180910401803211F410920A
:100180000401809106018F5F80930601DF91CF917A
:10019000FF91EF919F918F913F912F910F9000923E
:1001A0005F000F901F9018951F920F9200905F00B4
:1001B0000F9211242F933F938F939F93EF93FF936D
:1001C000CF93DF93CDB7DEB7809103018823E1F0B1
:1001D00086EC90E020910201222F30E0225D3E4F1C
:1001E000F9012081FC0120838091030181508093DB
:1001F0000301809102018F5F8093020180910201CF
:10020000803211F410920201DF91CF91FF91EF91B2
:100210009F918F913F912F910F9000925F000F90CF
:100220001F901895CF93DF9300D0CDB7DEB79A8398
:10023000898385EC90E029813A81232F3327FC01C3
:10024000208384EC90E02981FC01208382EC90E003
:1002500026E0FC01208381EC90E021EC30E0F90104
:100260002081286DFC01208378940F900F90DF91FE
:10027000CF910895CF93DF93CDB7DEB710920401ED
:100280001092050110920601DF91CF910895CF934E
:10029000DF931F92CDB7DEB7809106018823D9F096
:1002A00080910501882F90E0825F9E4FFC01808144
:1002B0008983809106018150809306018091050118
:1002C0008F5F8093050180910501803211F41092B7
:1002D0000501898101C080E00F90DF91CF910895E1
:1002E000CF93DF93CDB7DEB787E690E00E9412018F
:1002F0000E94830180915E01882321F00E946900A1
:1003000010925E01F7CFCF93DF93CDB7DEB78AE2CD
:1003100090E020E4FC012083DF91CF910895FC015F
:1003200088279927E89421912032E9F3293010F0A9
:100330002E30C8F32B3241F02D3239F4689404C0CA
:100340000E94AD01820F911D219120532A30C0F3EC
:100350001EF4909581959F4F08957AE0979F902D78
:0E036000879F802D910D11240895F894FFCFF2
:00000001FF
